:100000000C9462000C948A000C948A000C948A0070
:100010000C948A000C948A000C948A000C948A0038
:100020000C948A000C948A000C948A000C945E0252
:100030000C948A000C948A000C948A000C948A0018
:100040000C9414020C948A000C948A000C948A007C
:100050000C948A000C948A000C948A000C948A00F8
:100060000C948A000C948A000000000024002700F1
:100070002A0000000000250028002B0000000000DE
:1000800023002600290004040404040404040202DA
:100090000202020203030303030301020408102007
:1000A0004080010204081020010204081020000012
:1000B0000008000201000003040700000000000027
:1000C0000000F20311241FBECFEFD8E0DEBFCDBF8A
:1000D00011E0A0E0B1E0E8E0F9E002C005900D9287
:1000E000A832B107D9F721E0A8E2B1E001C01D9222
:1000F000AA35B207E1F710E0C2E6D0E004C02197CC
:10010000FE010E947C04C136D107C9F70E941A0380
:100110000C9482040C940000CF92DF92EF92FF9235
:10012000DC01A03282E0B807D4F5A53BB10514F09C
:10013000A4EBB0E04091580128E830E0241B3109DD
:1001400047FD3395220F331F220F331F6901330FF1
:10015000EE08FF084091590128E532E0241B3109DF
:1001600047FD3395220F331F220F331F032E000C40
:10017000440B550B2C193D094E095F09B7FF02C00E
:10018000B0E0A0E00E94370424EB30E040E050E013
:100190000E940D04C20ED31EE41EF51ED601E0918E
:1001A0005701EC3080F52091580188E890E0821BDF
:1001B000910927FD9395880F991F880F991FA817FC
:1001C000B90784F02091590188E592E0821B9109DA
:1001D00027FD9395880F991F880F991FA817B907B6
:1001E0000CF4CD010297880F991F4FB7F8942E2F6A
:1001F00030E0F901EE0FFF1FE20FF31FED5CFE4F41
:10020000928381834FBFFF90EF90DF90CF9008954E
:10021000833081F028F4813099F08230A9F008957C
:100220008730A9F08830C9F08430B1F48091800023
:100230008F7D03C0809180008F7780938000089528
:1002400084B58F7784BD089584B58F7DFBCF809171
:10025000B0008F778093B00008958091B0008F7DBB
:10026000F9CFCF93DF93282F30E0F901E255FF4F0C
:100270008491F901E656FF4FD491F901EA57FF4FF7
:10028000C491CC23A1F081110E940801EC2FF0E071
:10029000EE0FFF1FE458FF4FA591B491EC91ED23B1
:1002A00081E090E009F480E0DF91CF91089580E053
:1002B00090E0FACF1F93CF93DF93282F30E0F9011E
:1002C000E255FF4F8491F901E656FF4FD491F901B1
:1002D000EA57FF4FC491CC23A9F0162F81110E9439
:1002E0000801EC2FF0E0EE0FFF1FEE58FF4FA59135
:1002F000B4918FB7F894EC91111108C0D095DE231A
:10030000DC938FBFDF91CF911F910895DE2BF8CF43
:10031000CF93DF9390E0FC01E656FF4F24918A577C
:100320009F4FFC0184918823D1F090E0880F991FA2
:10033000FC01E859FF4FA591B491FC01EE58FF4F25
:10034000C591D49161110EC09FB7F8948C91E22FA2
:10035000E0958E238C932881E223E8839FBFDF9171
:10036000CF9108958FB7F894EC91E22BEC938FBF67
:10037000F6CF3FB7F89480912F0190913001A09172
:100380003101B091320126B5A89B05C02F3F19F06D
:100390000196A11DB11D3FBFBA2FA92F982F882705
:1003A000BC01CD01620F711D811D911D42E0660FE0
:1003B000771F881F991F4A95D1F708958F929F92B2
:1003C000AF92BF92CF92DF92EF92FF920E94B9015B
:1003D0004B015C0188EEC82E83E0D82EE12CF12C75
:1003E0000E94B901681979098A099B09683E73401E
:1003F00081059105A8F321E0C21AD108E108F108AE
:1004000088EE880E83E0981EA11CB11CC114D10493
:10041000E104F10429F7FF90EF90DF90CF90BF90B7
:10042000AF909F908F9008951F920F920FB60F92EA
:1004300011242F933F938F939F93AF93BF938091FA
:100440002B0190912C01A0912D01B0912E013091A2
:100450002A0123E0230F2D3758F50196A11DB11D68
:1004600020932A0180932B0190932C01A0932D01BE
:10047000B0932E0180912F0190913001A091310114
:10048000B09132010196A11DB11D80932F0190936F
:100490003001A0933101B0933201BF91AF919F9190
:1004A0008F913F912F910F900FBE0F901F90189535
:1004B00026E8230F0296A11DB11DD2CF1F920F92E5
:1004C0000FB60F9211242F933F934F935F936F9327
:1004D0007F938F939F93AF93BF93CF93DF93EF93CC
:1004E000FF9380912901C0912801D0E087FF24C0AB
:1004F0001092850010928400809129018F5F809373
:10050000290180912901082E000C990B8C179D0759
:1005100024F4809129018C30C4F180918400909161
:100520008500049680349C4908F47AC08091840048
:1005300090918500049676C080912901082E000CC8
:10054000990B8C179D07C4F6E09129018E2FEE0FB1
:10055000990BFC01EE0FFF1FE80FF91FED5CFE4F3A
:10056000808186FFC9CFE09129018E2FEE0F990B74
:10057000FC01EE0FFF1FE80FF91FED5CFE4F8081BD
:1005800060E08F730E945A01B7CF209184003091B0
:100590008500E09129018E2FEE0F990BFC01EE0FE3
:1005A000FF1FE80FF91FED5CFE4F81819281820FE2
:1005B000931F9093890080938800E09129018E2FEA
:1005C000EE0F990BFC01EE0FFF1FE80FF91FED5C1A
:1005D000FE4F808186FF11C0E09129018E2FEE0F22
:1005E000990BFC01EE0FFF1FE80FF91FED5CFE4FAA
:1005F000808161E08F730E945A01FF91EF91DF913A
:10060000CF91BF91AF919F918F917F916F915F91AA
:100610004F913F912F910F900FBE0F901F90189503
:1006200080E49CE990938900809388008FEF809309
:100630002901E3CF789484B5826084BD84B581605C
:1006400084BD85B5826085BD85B5816085BD80919D
:100650006E00816080936E00109281008091810015
:10066000826080938100809181008160809381000D
:10067000809180008160809380008091B1008460CF
:100680008093B1008091B00081608093B000809130
:100690007A00846080937A0080917A0082608093EF
:1006A0007A0080917A00816080937A0080917A004C
:1006B000806880937A001092C100809157018C303D
:1006C00008F051C061E089E00E94880180915701E3
:1006D000282F30E0F901EE0FFF1FE20FF31FED5C52
:1006E000FE4F9081907C99609083109258011092F7
:1006F00059012CE0622F0E947004829FB0011124E6
:1007000030E020E0AB01420F531FFA01EE0FFF1F54
:10071000E40FF51FED5CFE4F908196FD16C02F5F34
:100720003F4F2C30310571F781110FC010928000BE
:1007300082E0809381001092850010928400B19A2B
:1007400080916F00826080936F00E09157018E2F3F
:1007500090E0FC01EE0FFF1FE80FF91FED5CFE4F6C
:100760008081806480838AE590E00E948C0060E054
:100770008BE00E94880160E08AE00E948801C0E06E
:10078000D0E08BE00E943101019759F48091000183
:1007900090910101019690930101809300010E94C4
:1007A000DE018AE00E943101019759F48091000135
:1007B00090910101019790930101809300010E94A3
:1007C000DE01E0910001F0910101EE0FFF1FEE5FED
:1007D000FE4F808191810E948C00209791F20E94AF
:1007E0000000CFCF809128018C3098F491E0980FD1
:1007F000909328018093570190E0FC01EE0FFF1FBA
:10080000E80FF91FED5CFE4F88EB9BE0928381833C
:1008100008958FEF809357010895052E97FB1EF4DE
:1008200000940E94240457FD07D00E943F0407FC57
:1008300003D04EF40C9424045095409530952195A6
:100840003F4F4F4F5F4F08959095809570956195FC
:100850007F4F8F4F9F4F08950E946104A59F900D79
:10086000B49F900DA49F800D911D11240895B7FF92
:100870000C942C040E942C04821B930B0895A1E27B
:100880001A2EAA1BBB1BFD010DC0AA1FBB1FEE1F0A
:10089000FF1FA217B307E407F50720F0A21BB30B55
:1008A000E40BF50B661F771F881F991F1A9469F7D1
:1008B00060957095809590959B01AC01BD01CF012D
:1008C0000895A29FB001B39FC001A39F700D811D29
:1008D0001124911DB29F700D811D1124911D089549
:1008E000991B79E004C0991F961708F0961B881F82
:1008F0007A95C9F780950895EE0FFF1F0590F49142
:08090000E02D0994F894FFCFEB
:1009080009002800320037003C00420047004D0033
:10091800520057005D00620068006D0072007800A8
:080928007D00820088009100AF
:00000001FF
