:100000000C9462000C948A000C948A000C948A0070
:100010000C948A000C948A000C948A000C948A0038
:100020000C948A000C948A000C948A000C948A0028
:100030000C948A000C948A000C948A000C948A0018
:100040000C94A4020C948A000C948A000C948A00EC
:100050000C948A000C948A000C948A000C948A00F8
:100060000C948A000C948A000000000024002700F1
:100070002A0000000000250028002B0000000000DE
:1000800023002600290004040404040404040202DA
:100090000202020203030303030301020408102007
:1000A0004080010204081020010204081020000012
:1000B0000008000201000003040700000000000027
:1000C00000002C0411241FBECFEFD8E0DEBFCDBF4F
:1000D00011E0A0E0B1E0EEE2F9E002C005900D927F
:1000E000A430B107D9F721E0A4E0B1E001C01D922E
:1000F000A732B207E1F710E0C2E6D0E004C02197D2
:10010000FE010E947B04C136D107C9F70E94EE02AE
:100110000C9495040C940000833081F028F4813015
:1001200099F08230A9F008958730A9F08830C9F09D
:100130008430B1F4809180008F7D03C08091800075
:100140008F7780938000089584B58F7784BD08955C
:1001500084B58F7DFBCF8091B0008F778093B00006
:1001600008958091B0008F7DF9CFCF93DF93282F32
:1001700030E0F901E255FF4F8491F901E656FF4F57
:10018000D491F901EA57FF4FC491CC23A1F081111A
:100190000E948C00EC2FF0E0EE0FFF1FE458FF4FA1
:1001A000A591B491EC91ED2381E090E009F480E019
:1001B000DF91CF91089580E090E0FACF1F93CF9325
:1001C000DF93282F30E0F901E255FF4F8491F901C8
:1001D000E656FF4FD491F901EA57FF4FC491CC2363
:1001E000A9F0162F81110E948C00EC2FF0E0EE0F89
:1001F000FF1FEE58FF4FA591B4918FB7F894EC9183
:10020000111108C0D095DE23DC938FBFDF91CF9111
:100210001F910895DE2BF8CFCF93DF93EC018091EF
:10022000150190911601029749F4C130D10509F4E6
:100230003BC06CF560E0209709F437C08091150150
:1002400090911601049749F4C130D10509F45CC0BE
:100250000CF037C0209709F442C0809115019091AD
:100260001601059709F0E5C0CA30D10508F0E1C0D4
:10027000FE01E35CFE4F0C947B049C01A801B901D4
:10028000CF01EA01EC01F301FF0110021702C230B5
:10029000D105A9F060E0C330D10581F68091190144
:1002A0000E94DE0060E006C061E0809119010E94BA
:1002B000DE0061E080911B010E94DE00BFCF61E0A3
:1002C000EDCFC230D10539F1C330D10509F0C5CF2A
:1002D00061E0809119010E94DE0060E022C061E0CF
:1002E000809119010E94DE0060E080911B010E9454
:1002F000DE0061E080911D010E94DE0060E08091DF
:100300001F010E94DE00A9CF60E0809119010E94C8
:10031000DE0061E0EACF60E0809119010E94DE001A
:1003200061E080911B010E94DE0060E080911D0170
:100330000E94DE0061E0E3CF60E0809119010E943D
:10034000DE0061E080911B010E94DE0061E00BC0D5
:1003500060E0809119010E94DE0061E080911B0144
:100360000E94DE0060E080911D010E94DE0060E0DE
:1003700010C060E0809119010E94DE0061E0809170
:100380001B010E94DE0060E080911D010E94DE00E2
:1003900061E080911F010E94DE0061E015C060E015
:1003A000809119010E94DE0061E080911B010E9492
:1003B000DE0060E080911D010E94DE0061E080911E
:1003C0001F010E94DE0060E080912101DF91CF914A
:1003D0000C94DE0061E0E4CF61E0809119010E949D
:1003E000DE0060E0E2CF61E0809119010E94DE0052
:1003F00060E080911B010E94DE0061E0DBCF61E0E4
:10040000809119010E94DE0060E080911B010E9432
:10041000DE0061E080911D010E94DE0060E0CFCF30
:1004200061E0809119010E94DE0060E08BCF60E006
:10043000F8CFDF91CF910895CF93DF9390E0FC0147
:10044000E656FF4F24918A579F4FFC0184918823E1
:10045000D1F090E0880F991FFC01E859FF4FA5915A
:10046000B491FC01EE58FF4FC591D49161110EC0BB
:100470009FB7F8948C91E22FE0958E238C9328817E
:10048000E223E8839FBFDF91CF9108958FB7F8945F
:10049000EC91E22BEC938FBFF6CF3FB7F8948091AD
:1004A000090190910A01A0910B01B0910C0126B5B0
:1004B000A89B05C02F3F19F00196A11DB11D3FBF9C
:1004C000BA2FA92F982F8827BC01CD01620F711D6B
:1004D000811D911D42E0660F771F881F991F4A9565
:1004E000D1F708958F929F92AF92BF92CF92DF92F1
:1004F000EF92FF924B015C010E944D026B017C0167
:100500000E944D026C197D098E099F09683E734057
:1005100081059105A8F321E0821A9108A108B1088C
:1005200088EEC80E83E0D81EE11CF11C81149104F2
:10053000A104B10429F7FF90EF90DF90CF90BF9016
:10054000AF909F908F9008951F920F920FB60F92C9
:1005500011242F933F938F939F93AF93BF938091D9
:10056000050190910601A0910701B0910801309119
:10057000040123E0230F2D3758F50196A11DB11D6D
:10058000209304018093050190930601A093070135
:10059000B09308018091090190910A01A0910B018B
:1005A000B0910C010196A11DB11D8093090190939A
:1005B0000A01A0930B01B0930C01BF91AF919F91E1
:1005C0008F913F912F910F900FBE0F901F90189514
:1005D00026E8230F0296A11DB11DD2CF789484B5D1
:1005E000826084BD84B5816084BD85B5826085BD2F
:1005F00085B5816085BD80916E00816080936E00BD
:1006000010928100809181008260809381008091AE
:10061000810081608093810080918000816080935F
:1006200080008091B10084608093B1008091B0001F
:1006300081608093B00080917A00846080937A001A
:1006400080917A00826080937A0080917A00816044
:1006500080937A0080917A00806880937A0010926B
:10066000C10061E084E00E941C0261E086E00E941B
:100670001C0261E089E00E941C0261E08AE00E94A5
:100680001C0260E08BE00E941C0260E08CE00E9493
:100690001C0260E08DE00E941C0284E0E82EF12C38
:1006A0009AE0C92ED12C20E0822E20E0922E01E08B
:1006B00010E077247394AA24AA94BA2C80910201A2
:1006C000882309F485C08091000190910101EC011B
:1006D00097FF04C0CC27DD27C81BD90B18161906B5
:1006E0000CF05AC010930E0100930D01209709F4ED
:1006F0006FC00E944D02209123013091240140914E
:100700002501509126011B012C01221A330A440AAB
:10071000550A20910F013091100140911101509123
:100720001201221633064406550600F36093230196
:1007300070932401809325019093260180911701E5
:100740009091180120910D0130910E012130310559
:1007500059F5019690931801809317012091130188
:10076000309114018217930721F41092180110920E
:10077000170121978091170190911801209115017F
:1007800030911601B6012530310509F0B7010E94FC
:1007900067040E940C01AACF892B09F4A7CF1092FD
:1007A0000E0110920D01A2CF892B41F4809113010B
:1007B0009091140190931801809317018091170173
:1007C0009091180101979093180180931701D1CF50
:1007D0008BE00E94B500019741F41092020164EF92
:1007E00071E080E090E00E9472028CE00E94B5000F
:1007F000019781F480910201811102C0709202017F
:10080000109301010093000164EF71E080E090E03B
:100810000E9472028DE00E94B500019781F48091E0
:100820000201811102C070920201B0920101A092F6
:10083000000164EF71E080E090E00E94720264E6E3
:1008400070E080E090E00E9472028114910409F44B
:1008500035CF0E94000032CF0F931F93CF93DF93C9
:10086000CDE0D1E01B861A86198218821E8A1F8A63
:10087000188E198E84E290E09F838E8386E090E04C
:100880009D878C8704E010E01F870E878AE090E048
:10089000998B888B89E090E09B8B8A8B61E086E066
:1008A0000E941C0261E08E850E941C0261E0888922
:1008B0000E941C0261E08A890E941C021D8A1C8A17
:1008C00019870887DF91CF911F910F91089597FBAA
:1008D000072E16F4009407D077FD09D00E948104FA
:1008E00007FC05D03EF4909581959F4F0895709533
:1008F00061957F4F0895EE0FFF1F0590F491E02D55
:100900000994AA1BBB1B51E107C0AA1FBB1FA61756
:10091000B70710F0A61BB70B881F991F5A95A9F7A8
:0E09200080959095BC01CD010895F894FFCF0D
:04092E0001000100C3
:00000001FF
